{
	"contracts/Simple.sol": {
		"Test": {
			"abi": [
				{
					"inputs": [],
					"name": "SimpleInterest",
					"outputs": [
						{
							"internalType": "int256",
							"name": "",
							"type": "int256"
						}
					],
					"stateMutability": "view",
					"type": "function"
				}
			],
			"devdoc": {
				"kind": "dev",
				"methods": {},
				"version": 1
			},
			"evm": {
				"assembly": "    /* \"contracts/Simple.sol\":25:219  contract Test{\r... */\n  mstore(0x40, 0x80)\n  callvalue\n  dup1\n  iszero\n  tag_1\n  jumpi\n  0x00\n  dup1\n  revert\ntag_1:\n  pop\n  dataSize(sub_0)\n  dup1\n  dataOffset(sub_0)\n  0x00\n  codecopy\n  0x00\n  return\nstop\n\nsub_0: assembly {\n        /* \"contracts/Simple.sol\":25:219  contract Test{\r... */\n      mstore(0x40, 0x80)\n      callvalue\n      dup1\n      iszero\n      tag_1\n      jumpi\n      0x00\n      dup1\n      revert\n    tag_1:\n      pop\n      jumpi(tag_2, lt(calldatasize, 0x04))\n      shr(0xe0, calldataload(0x00))\n      dup1\n      0x0f1e3155\n      eq\n      tag_3\n      jumpi\n    tag_2:\n      0x00\n      dup1\n      revert\n        /* \"contracts/Simple.sol\":47:216  function SimpleInterest()public view returns(int){\r... */\n    tag_3:\n      tag_4\n      tag_5\n      jump\t// in\n    tag_4:\n      mload(0x40)\n      dup1\n      dup3\n      dup2\n      mstore\n      0x20\n      add\n      swap2\n      pop\n      pop\n      mload(0x40)\n      dup1\n      swap2\n      sub\n      swap1\n      return\n    tag_5:\n        /* \"contracts/Simple.sol\":92:95  int */\n      0x00\n        /* \"contracts/Simple.sol\":109:114  int p */\n      dup1\n        /* \"contracts/Simple.sol\":116:118  12 */\n      0x0c\n        /* \"contracts/Simple.sol\":109:118  int p =12 */\n      swap1\n      pop\n        /* \"contracts/Simple.sol\":129:134  int r */\n      0x00\n        /* \"contracts/Simple.sol\":135:137  10 */\n      0x0a\n        /* \"contracts/Simple.sol\":129:137  int r=10 */\n      swap1\n      pop\n        /* \"contracts/Simple.sol\":148:153  int t */\n      0x00\n        /* \"contracts/Simple.sol\":154:155  3 */\n      0x03\n        /* \"contracts/Simple.sol\":148:155  int t=3 */\n      swap1\n      pop\n        /* \"contracts/Simple.sol\":168:173  int I */\n      0x00\n        /* \"contracts/Simple.sol\":184:187  100 */\n      0x64\n        /* \"contracts/Simple.sol\":181:182  t */\n      dup3\n        /* \"contracts/Simple.sol\":179:180  r */\n      dup5\n        /* \"contracts/Simple.sol\":177:178  p */\n      dup7\n        /* \"contracts/Simple.sol\":177:180  p*r */\n      mul\n        /* \"contracts/Simple.sol\":177:182  p*r*t */\n      mul\n        /* \"contracts/Simple.sol\":176:187  (p*r*t)/100 */\n      dup2\n      tag_7\n      jumpi\n      invalid\n    tag_7:\n      sdiv\n        /* \"contracts/Simple.sol\":168:187  int I = (p*r*t)/100 */\n      swap1\n      pop\n        /* \"contracts/Simple.sol\":207:208  I */\n      dup1\n        /* \"contracts/Simple.sol\":200:208  return I */\n      swap5\n      pop\n      pop\n      pop\n      pop\n      pop\n        /* \"contracts/Simple.sol\":47:216  function SimpleInterest()public view returns(int){\r... */\n      swap1\n      jump\t// out\n\n    auxdata: 0xa2646970667358221220583871685eebbd2742a823c06801ba0eb94e2997db4ae5669041756a6d72b58d64736f6c634300060c0033\n}\n",
				"bytecode": {
					"linkReferences": {},
					"object": "6080604052348015600f57600080fd5b5060ae8061001e6000396000f3fe6080604052348015600f57600080fd5b506004361060285760003560e01c80630f1e315514602d575b600080fd5b60336049565b6040518082815260200191505060405180910390f35b600080600c90506000600a905060006003905060006064828486020281606b57fe5b059050809450505050509056fea2646970667358221220583871685eebbd2742a823c06801ba0eb94e2997db4ae5669041756a6d72b58d64736f6c634300060c0033",
					"opcodes": "PUSH1 0x80 PUSH1 0x40 MSTORE CALLVALUE DUP1 ISZERO PUSH1 0xF JUMPI PUSH1 0x0 DUP1 REVERT JUMPDEST POP PUSH1 0xAE DUP1 PUSH2 0x1E PUSH1 0x0 CODECOPY PUSH1 0x0 RETURN INVALID PUSH1 0x80 PUSH1 0x40 MSTORE CALLVALUE DUP1 ISZERO PUSH1 0xF JUMPI PUSH1 0x0 DUP1 REVERT JUMPDEST POP PUSH1 0x4 CALLDATASIZE LT PUSH1 0x28 JUMPI PUSH1 0x0 CALLDATALOAD PUSH1 0xE0 SHR DUP1 PUSH4 0xF1E3155 EQ PUSH1 0x2D JUMPI JUMPDEST PUSH1 0x0 DUP1 REVERT JUMPDEST PUSH1 0x33 PUSH1 0x49 JUMP JUMPDEST PUSH1 0x40 MLOAD DUP1 DUP3 DUP2 MSTORE PUSH1 0x20 ADD SWAP2 POP POP PUSH1 0x40 MLOAD DUP1 SWAP2 SUB SWAP1 RETURN JUMPDEST PUSH1 0x0 DUP1 PUSH1 0xC SWAP1 POP PUSH1 0x0 PUSH1 0xA SWAP1 POP PUSH1 0x0 PUSH1 0x3 SWAP1 POP PUSH1 0x0 PUSH1 0x64 DUP3 DUP5 DUP7 MUL MUL DUP2 PUSH1 0x6B JUMPI INVALID JUMPDEST SDIV SWAP1 POP DUP1 SWAP5 POP POP POP POP POP SWAP1 JUMP INVALID LOG2 PUSH5 0x6970667358 0x22 SLT KECCAK256 PC CODESIZE PUSH18 0x685EEBBD2742A823C06801BA0EB94E2997DB 0x4A 0xE5 PUSH7 0x9041756A6D72B5 DUP14 PUSH5 0x736F6C6343 STOP MOD 0xC STOP CALLER "
				},
				"gasEstimates": {
					"creation": {
						"codeDepositCost": "34800",
						"executionCost": "87",
						"totalCost": "34887"
					},
					"external": {
						"SimpleInterest()": "284"
					}
				},
				"methodIdentifiers": {
					"SimpleInterest()": "0f1e3155"
				}
			},
			"storageLayout": {
				"storage": [],
				"types": null
			},
			"userdoc": {
				"kind": "user",
				"methods": {},
				"version": 1
			}
		}
	}
}